:020000040800F2
:100000000005002049010008C31C0008A1190008D0
:10001000C11C0008F10A00080D1F000800000000C4
:10002000000000000000000000000000C71C0008E5
:10003000F30A000800000000C51C0008C91C0008E5
:100040006301000863010008630100086301000800
:1000500063010008630100086301000863010008F0
:1000600063010008630100086301000863010008E0
:1000700063010008630100086301000863010008D0
:1000800063010008630100086301000863010008C0
:1000900063010008630100086301000863010008B0
:1000A00063010008630100086301000863010008A0
:1000B0006301000863010008630100086301000890
:1000C0006301000863010008630100086301000880
:1000D00063010008011F00086301000863010008B4
:1000E0006301000863010008630100086301000860
:1000F0006301000863010008630100086301000850
:10010000630100086301000863010008630100083F
:10011000630100086301000863010008630100082F
:10012000630100086301000863010008630100081F
:10013000DFF810D000F048FB00480047992900087C
:10014000AFF30080000500200648804706480047BE
:10015000FEE7FEE7FEE7FEE7FEE7FEE7FEE7FEE777
:10016000FEE7FEE7291D000831010008202A04DB14
:10017000203A21FA02F00021704721FA02F3D04020
:10018000C2F120029140084319467047D2B201E003
:1001900000F8012B491EFBD270470022F6E710B58C
:1001A00013460A4604461946FFF7F0FF204610BDE5
:1001B0002DE9FE4F804681EA0300C00F0C460090F7
:1001C00021F0004123F00045B8EB0200A94105D21F
:1001D0004046214690461C460B46024623F000400E
:1001E000104347D0270DC7F30A00C3F30A5102900A
:1001F000401A019040286BDAC3F3130040F4801BCF
:100200000098924620B10023D2EB030A63EB0B0B5C
:1002100001985946C0F14002504600F0EFF90646F9
:100220000D4650465946019A00F0F7F910EB0800C8
:100230006141002487EA115284EAE7731A4340D0EF
:10024000009A62B3019A012A4FEA075215DC001B9B
:1002500061EB02014FF0004202EA0752CDE9004291
:10026000001C41F5801132462B4600F02EFA03B0F7
:10027000BDE8F08F40462146F9E7001B61EB020123
:10028000001C41F5801300185B412018A2F50017EF
:1002900047EB030140EAD570B6196D4111E06D08D6
:1002A0004FEA360645EAC0754FEA0752001B61EB7C
:1002B0000201001C41F5801149084FEA3000001985
:1002C000514132462B4603B0BDE8F04F00F0EEB985
:1002D0000098012240000023D0EB020263EBE073A0
:1002E000009821464FEAE074B8EB000061EB04018E
:1002F000E9E783F000435BE781F0004158E72DE92F
:10030000FE4F81EA030404F0004421F00041009410
:100310004FF0000B23F0004350EA01045ED052EA94
:1003200003045BD0C3F30A54C1F30A552C44A4F26E
:10033000F3340194A0FB0254C1F3130141F4801182
:10034000C3F3130343F4801301FB024400FB034E89
:10035000840A970A44EA815447EA8357A4FB076852
:1003600002958D0A05FB07854FEA932C04FB0C547C
:100370002705029D4FEA065847EA1637B5EB0805F0
:100380006EEB070C870E920E47EA811742EA831242
:10039000A7FB0201B6EB0B0164EB00042B0D43EA53
:1003A0000C335E1844EB1C50DA465146E7FB020161
:1003B000C5F313044FEA0B3343EA14534FEA0432F4
:1003C000019C43EA0603A4F10C040294009CCDE9CD
:1003D00000B400F07AF903B0BDE8F08F00200146C8
:1003E000F9E72DE9F04D81EA030404F0004B21F018
:1003F000004514464FF0000A23F0004150EA050280
:1004000020D054EA01021DD0C5F30A570246C5F3B5
:100410001303C1F31300C1F30A5640F4801543F4EB
:100420008013A7EB0608101BD64608F2FD3873EBC5
:10043000050002D308F1010801E092185B41B8F110
:10044000000F03DA00200146BDE8F08D00204FF4D4
:100450008011064684460EE0171B73EB050705D393
:10046000121B63EB050306434CEA010C49084FEAF3
:10047000300092185B4150EA0107EDD152EA0300C7
:1004800012D082EA040083EA0501084305D0101B5C
:10049000AB4106D20122002306E000224FF00043C8
:1004A00002E06FF0010253101AEB06004CEB08510A
:1004B00010EB0A0041EB0B01BDE8F04D00F0F6B87F
:1004C00070B521F0004303430CD0C1F30A5500245A
:1004D000D5EB040564EB0403D617AD1AB34102DB78
:1004E0000020014670BD201841EB025170BD0EB5D1
:1004F000C10F80EAE0700844CA07002140F233438C
:100500008DE80E000A460B4600F0DFF803B000BD90
:1005100000F0004230F000400AD0C10D01F56071DA
:10052000C0F3160042EA0151C20840071143704768
:1005300000200146704701F0004330B421F0004133
:1005400050EA010206D00A0DA2F56072C1F3130150
:10055000002A02DC30BC00207047440F44EAC1048A
:10056000C100E01830BC00EBC25000F068B830B5F4
:100570000B46014600202022012409E021FA02F561
:100580009D4205D303FA02F5491B04FA02F52844FB
:10059000151EA2F10102F1DC30BD2DE9F05F054628
:1005A000002092469B4688460646814640241BE032
:1005B0002846414647462246FFF7D8FD53465A464D
:1005C000C01A914110D311461846224600F016F881
:1005D0002D1A67EB01084F4622460120002100F04A
:1005E0000DF817EB00094E41201EA4F10104DFDCD9
:1005F000484631462A464346BDE8F09F202A04DBA0
:10060000203A00FA02F1002070479140C2F1200325
:1006100020FA03F3194390407047202A06DBCB17DA
:10062000203A41FA02F043EAE07306E041FA02F3AD
:10063000D040C2F12002914008431946704700297A
:10064000A8BF7047401C490008BF20F00100704758
:1006500010B4B0FA80FC00FA0CF050EA010404BFB8
:1006600010BC704749B1CCF1200421FA04F411FA0E
:100670000CF118BF012121430843A3EB0C01CB1D52
:100680004FEA00614FEA102042BF002010BC7047C3
:1006900000EBC35010440029A4BF10BC7047401C9D
:1006A000490008BF20F0010010BC704710B5141EAF
:1006B00073F1000408DA401C41F1000192185B411B
:1006C0001A4301D120F0010010BD2DE9F04D9246F2
:1006D0009B4611B1B1FA81F202E0B0FA80F2203209
:1006E0009046FFF78BFF04460F4640EA0A0041EAB6
:1006F0000B0153465A46084313D0114653EA0100F2
:1007000019D0C8F140025046FFF730FD05460E46AD
:10071000504659464246FFF771FF084305D0012075
:1007200004E020463946BDE8F08D0020054346EA46
:10073000E0762C4337430A986305E40AA0EB0800EF
:100740000022FD0A44EA47540A3002D5002001463F
:10075000E9E7010510196941DDE90845001969411A
:10076000BDE8F04DA2E7C1F30A52C1F3130140F214
:10077000FF3341F480119A4202DA002001467047AB
:1007800040F233439A42A2F2334202DC5242FFF774
:10079000EDBCFFF733BF000030B5041E71F100045B
:1007A00004DB4FF00044404264EB0101141E73F17E
:1007B000000405DB1C464FF00043524263EB040388
:1007C000994208BF904230BD064C074D06E0E068F4
:1007D00040F0010394E8070098471034AC42F6D388
:1007E000FFF7AAFC80350008A03500082DE9F04D80
:1007F00000231A461B1A8A4103DB00200146BDE88C
:10080000F08DC1F30A52C1F3130141F480154FF08A
:10081000000BD10702D100186D41521E002704467B
:1008200040F2FF11384601EB620A3E46804602461E
:1008300000204FF48011FFF799FCC2197141BB18D9
:1008400046EB0100B4EB030C75EB000C04D3E41A87
:1008500065EB000517460E46241908F101006D41AD
:1008600080463428E3DDF91946EB0600091BA84150
:1008700003D24FF0FF32134601E0002213461BEB78
:10088000070046EB0A51BDE8F04DFFF70FBF00002F
:100890007FB5D021EE2001F0EFF8054600F01CF8FE
:1008A00000F094F80A4CA06CFFF732FE666C0A2246
:1008B00096FBF2F302FB136396FBF2F2CDE9020121
:1008C000206C00902946034801F022FB7FBD000008
:1008D000B00000202035000810B5AA2000F02EF846
:1008E000154C2080AC2000F029F86080AE2000F08C
:1008F00025F8A080B02000F021F8E080B22000F0C0
:100900001DF82081B42000F019F86081B62000F0B5
:1009100015F8A081B82000F011F8E081BA2000F0AD
:100920000DF82082BC2000F009F86082BE2000F0A3
:1009300005F8A08210BD0000B000002070B504468C
:1009400001F0DEF8EE2001F0B6F801F007F968B921
:10095000204601F0B0F801F001F938B901F0D0F803
:10096000EF2001F0A8F801F0F9F808B1012070BDFE
:10097000012001F05CF8044601F013F8002001F0BA
:1009800056F8054601F03CF801F0D1F805EB0420DB
:1009900000B270BD10B53422F421EE2001F0FFF852
:1009A000052001F0C5FFF620FFF7C8FF80B210BD9B
:1009B00010B52E22F421EE2001F0F1F8052001F00F
:1009C000B7FFBDE81040F620FFF7B8BF70B5FFF7DE
:1009D000EFFF404CA061FFF7EBFFA061FFF7DAFFEC
:1009E000E0616289A169B4F91230891A2289DB02B7
:1009F0005143B4F91420C9130A4493FBF2F2114491
:100A000001F10802121162646163A1F57A61A163C8
:100A100001FB01F2B4F90E3012135343DD12B4F9A5
:100A2000023002264B4305EBE323B4F9005006EBFA
:100A300085052B44DD1703EB95739B10E362B4F936
:100A40000450C01A4D4369132162B4F90C506A4333
:100A500012141144891C8910C4E90921E28801F5A6
:100A600000414A43D10B4CF2503250432163E063C2
:100A7000B0F1004F03D24000B0FBF1F002E0B0FB58
:100A8000F1F040000112494340F6DE325143124A70
:100A9000091442431214C4E90812114401F6CF614B
:100AA00000EB21102064FFF722FD00220B4BFFF723
:100AB00098FC0B4A0B4B01F0CDFF00220A4BFFF7CD
:100AC0001BFC0022094BFFF71AFCFFF734FDA06462
:100AD00070BD0000B000002043E3FFFFD0BCF84031
:100AE0006C45D9CC955BC83F0000F03F40A5E54080
:100AF000FEE7704772B6FEE72DE9F05F90F821102F
:100B00000024022903D004218163012485E00168C7
:100B10000A6822F00E020A6001680A6822F00102E7
:100B20000A603F4E3E4FB215DFF8F4C0DFF8F09098
:100B3000DFF8ECA0DFF8E8B0DFF8E4E00168783F28
:100B400013011502ACF1640CA9F15009AAF13C0A99
:100B5000ABF1280BAEF1140E4FF48018B14227D937
:100B6000B9420ED0614512D049451DD0514518D02B
:100B7000594518D0714501D1424615E0294EB14280
:100B800001D1012210E0274E1436B14201D11022CA
:100B90000AE0244E2836B14206D0224A3C32914225
:100BA00001D11A4600E02A461E49091F0A602BE0BF
:100BB000B94213D0614517D0494522D051451DD0C7
:100BC00059451DD0714501D142461AE0B14202D1CA
:100BD0004FF0807215E0134EB14201D1012210E0B6
:100BE000104E1436B14201D110220AE00D4E2836C3
:100BF000B14206D00B4A3C32914201D11A4600E084
:100C00002A46074980394A60012180F821100021D5
:100C100080F82010416B01B188472046BDE8F09F65
:100C200080000240080402402DE9F84FDFF8C89127
:100C3000002409F1040A0AF1040B23460F270BF1E3
:100C4000040ED1E00125A54006EA0502AA4276D1AC
:100C5000DFF8A8C14E68A6EB0C0866452BD00DDC6A
:100C6000032E34D005DC36B3012E19D0022E2FD13D
:100C70001BE0112E16D0122E2AD119E0B8F5881FCC
:100C800019D006DCB8F5803F15D0B8F5801F1FD10C
:100C900011E0B8F5001F0ED0B8F5041F18D10AE016
:100CA000CB6815E0CB681B1D12E0CB6808330FE062
:100CB000CB680C330CE08B682BB1012B4FF0080391
:100CC00003D0456104E0042302E0056100E0002355
:100CD000FF2A01D8064601E000F104064FEA840528
:100CE00001D9A5F12005D6F8008007FA05FC28EA0D
:100CF0000C0803FA05F548EA0508C6F800804D68B7
:100D0000ED0070D53E4DAE6946F00106AE61AD69AD
:100D100024F0030605F0010500953A4D06EB050C9D
:100D2000DCF80850A607360F07FA06F825EA08058A
:100D3000DFF8D480404503D14FF0000825E052E0B1
:100D4000DFF8C880404502D14FF001081DE0DFF810
:100D5000C080404502D14FF0020816E0DFF8B480B1
:100D6000404502D14FF003080FE0DFF8AC8040456A
:100D700002D14FF0040808E0DFF8A080404502D11E
:100D80004FF0050801E04FF0060808FA06F848EAB7
:100D90000508CCF808804D68D9F80060ED034D4691
:100DA00001D5164300E096432E604D68DAF80060E6
:100DB000AD03554601D5164300E096432E604D68BD
:100DC000DBF80060ED025D4601D5164300E0964376
:100DD0002E604D68DEF80060AD02754601D5164301
:100DE00000E096432E60641C0A681646E2407FF4D9
:100DF00029AFBDE8F88F0000000401400000111089
:100E0000001002400000014000080140000C0140B9
:100E1000001001400014014000180140001C014076
:100E20008068084000D0012070470AB10161704716
:100E30000904FBE7014880687047000004000020B7
:100E400070B5040025D094F83D00002520B984F841
:100E50003C50204600F0B8F8242084F83D0020687B
:100E6000016821F0010101602068016841F400413E
:100E700001602068016821F40041016000F008FA77
:100E80004D4A6168914201D84C4900E04C49884282
:100E900001D2012070BD4B492368B0FBF1F15E68BF
:100EA00026F03F060E435E606368934206D94FF416
:100EB000967359434FF47A73B1FBF3F12368491CDD
:100EC0001E6A26F03F06314319626168914210D8CC
:100ED0004900401EB0FBF1F2521CC2F30B02042A7F
:100EE00001D2042022E0B0FBF1F0401CC0F30B0063
:100EF0001CE0A268F2B301EBC10303EB0116431E31
:100F0000B3FBF6F35B1C43F480431B0549D092B35B
:100F100001EBC10202EB0111401EB0FBF1F0401CDD
:100F2000C0F30B0040F4804040F400402168CA69DF
:100F30004CF6FF739A431043C861D4E9071001438C
:100F40002068026822F0C00211430160D4E9030165
:100F500001432068826848F2FF339A43114381605D
:100F6000D4E9050108432168CA6822F0FF02104352
:100F7000C86001E00EE016E02068016841F0010160
:100F800001602564202084F83D00256384F83E50EC
:100F9000002070BD01EB4106431EB3FBF6F35B1C62
:100FA000B3E70120C2E701EB4101401EB0FBF1F0C5
:100FB000401CC0F30B00B7E7A086010080841E0030
:100FC00000093D0040420F0010B586B0002100919D
:100FD00001910291039100681349884222D1134C78
:100FE000E06940F40010E061E06900F40010049052
:100FF000A06940F00800A061A069694600F00800FF
:101000000490C02000901220019003200390084813
:10101000FFF70AFEE06940F40010E061E06900F4C7
:101020000010049006B010BD0054004000100240B3
:10103000000C0140024881680278114481607047C9
:1010400004000020074810B5016841F0100101605C
:10105000032000F075F8002000F006F800F024F8F6
:10106000002010BD0020024070B50D4D04464FF425
:101070007A712878B1FBF0F00A490968B1FBF0F009
:1010800000F0FCFA48B9102C07D200222146501E6D
:1010900000F036F800206C6070BD012070BD0000CB
:1010A00004000020100000200C4808B5816941F0C0
:1010B00001018161816901F001010091C16941F083
:1010C0008051C161C06900F08050009004484168BF
:1010D00021F0E06141F00071416008BD0010024064
:1010E00000000140002809DB00F01F0201219140AF
:1010F0004009800000F1E020C0F8001170470000B6
:10110000F0B40E4B1B680C46C3F30223C3F1070572
:10111000042D00D90425191D072901D2002300E060
:10112000DB1E012606FA05F1491E214099409E402A
:10113000761E16403143F0BC00F00EBF0CED00E00F
:10114000064900F0070208684FF6FF03184040EA1E
:101150000220034A10430860704700000CED00E0D5
:101160000000FA052DE9F0470F46050061D0434E17
:10117000306800F00700B84209D2306820F007005C
:1011800038433060306800F00700B84251D1286819
:101190003B4C810712D5400703D5606840F4E060FE
:1011A00060602878000703D5606840F46050606094
:1011B0006068A96820F0F000084360602878C007E4
:1011C00028D06868012810D02168022810D089072B
:1011D00000292EDA616821F0030101436160FFF705
:1011E00029FE804641F288390DE021688903EFE746
:1011F0008901EDE7FFF71EFEA0EB0801494502D982
:101200000320BDE8F0876068696800F00C00B0EB6F
:10121000810FEFD1306800F00700B8420BD9306879
:1012200020F0070038433060306800F00700B84213
:1012300001D00120E5E72878400705D56068E96816
:1012400020F4E060084360602878000706D56068F5
:10125000296920F4605040EAC100606000F038F86D
:101260006168084AC1F30311515CC840064908602F
:1012700006480068FFF7F8FE0020C2E700200240A1
:101280000010024078340008100000200800002000
:101290000448054900684968044AC1F30221515CC9
:1012A000C840704710000020001002408834000839
:1012B0000448054900684968044AC1F3C221515CE9
:1012C000C840704710000020001002408834000819
:1012D00013A185B00FC98DE80F0015A0154A00684D
:1012E0000490516801F00C00042804D0082804D0B0
:1012F000114805B070471148FBE7C1F38343C903A8
:101300001DF8030009D5516804AAC1F34041515C9E
:101310000A4A5043B0FBF1F0EBE709494843E8E7DC
:1013200002030405060708090A0B0C0D0E0F101026
:10133000010200000010024000127A00001BB700FA
:1013400000093D002DE9F84F040070D02078C04D11
:10135000C00749D06868C0F38100012807D06868D9
:10136000C0F38100022809D16868C00306D5286847
:10137000800339D560680028E7D035E06068B0F5B3
:10138000803F0BD010B1B0F5A02F11D0286820F409
:1013900080302860286820F4802002E0286840F42B
:1013A00080302860606890B1FFF744FD06460AE08F
:1013B000286840F480202860F0E700BFFFF73AFD7E
:1013C000801B642873D828688003F7D50CE0FFF7EA
:1013D00031FD064605E000BFFFF72CFD801B6428A9
:1013E000F0D828688003F7D420789A4E80074FF011
:1013F00001094FF0000839D5686810F00C0F07D0CC
:101400006868C0F38100022809D16868C00306D467
:101410002868800714D52069012808D110E02069C8
:10142000B0B1C6F80090FFF705FD074605E00AE1F8
:10143000FFF700FDC01B0228C4D828688007F7D535
:101440002868616920F0F80040EAC10028600DE0DA
:10145000C6F80080FFF7EEFC074604E0FFF7EAFC61
:10146000C01B022823D828688007F7D420780007FB
:101470002CD57948A169D9B1C0F80090FFF7DAFC02
:10148000074604E0FFF7D6FCC01B02280FD8686AA5
:101490008007F7D571484FF4FA510068B0FBF1F0BE
:1014A000009000BF0098411E0091FAD20EE080E04B
:1014B000C0F80080FFF7BEFC074604E0FFF7BAFC67
:1014C000C01B022875D8686A8007F7D420784007C7
:1014D00060D5E8690027C00008D4E86940F0805072
:1014E000E861E869012700F0805000905C480168DD
:1014F000C90513D40168834641F480710160FFF788
:1015000099FC824606E000BFFFF794FCA0EB0A00BE
:1015100064284ED8DBF80000C005F5D5E068012846
:101520000AD008B1052813D0286A20F001002862EB
:10153000286A20F0040002E0286A40F001002862D6
:10154000E06841F2883B98B1FFF774FC82460BE0FB
:10155000286A40F004002862EEE700BFFFF76AFC4B
:10156000A0EB0A0159455AD8286A8007F6D50CE045
:10157000FFF760FC824605E0FFF75CFCA0EB0A0188
:1015800059454CD8286A8007F6D41FB1E86920F085
:101590008050E861E06988B36968C1F3810102297C
:1015A00044D00228C6F8608004D0FFF743FC04460C
:1015B00038E034E0FFF73EFC074604E0FFF73AFC72
:1015C000C01B02282BD828688001F7D4206AB0F508
:1015D000803F05D16868A16820F400300843686046
:1015E000D4E908010843696821F47411084368606C
:1015F000C6F86090FFF71EFC044606E025E000BF39
:10160000FFF718FC001B022809D828688001F7D5CD
:101610001BE000BFFFF70EFC001B022802D90320CD
:10162000BDE8F88F28688001F4D40EE00128F7D0D7
:101630006868226A00F48031914204D1616A00F442
:101640007010884201D00120EAE70020E8E700009E
:10165000001002400000424280044242100000207C
:10166000007000404FF0E0210428086903D020F00A
:1016700004000861704740F00400FAE710B5401E0E
:10168000B0F1807F01D3012010BD4FF0E0246061F4
:101690000F21601700F060FC0020A061072020618E
:1016A000002010BD7047000070B502680446106845
:1016B000D168536910F00F0F52D003F0010501F407
:1016C00090762E435FD0C20705D0CA0503D5E26BE2
:1016D00042F00102E263420705D5DA0703D0E26B6C
:1016E00042F00202E263820705D5DA0703D0E26B1B
:1016F00042F00402E263020707D501F020022A4308
:1017000003D0E26B42F00802E263E26B002A33D0BE
:10171000800604D5880602D5204600F01CFB206810
:101720004069E16BC0F38010090700D428B320465C
:1017300000F003FB2068416949061AD5416921F090
:1017400040014161606BA0B12D494163606BFFF7BF
:10175000D3F9002810D0606B416BBDE8704008479A
:10176000830610D58B060ED52046BDE8704000F0EC
:10177000F2BA2046FFF796FF70BD2046FFF792FFB2
:101780000020E06370BD03062BD50B0629D594F825
:1017900039002128F6D1A068B0F5805F01D1206919
:1017A000B0B1206A411C2162216800784860E08C59
:1017B000401E0004000CE084E4D12068C16821F0E0
:1017C0008001C1602068C16841F04001C16070BD06
:1017D000206A0088C0F308005060206A801C2062E4
:1017E000E5E74006F3D54806F1D5D168204621F05B
:1017F0004001D160202184F8391000F0D0F870BD8C
:101800002B1D000870B5040004D094F839000025A1
:1018100010B106E0012070BD84F83850204600F079
:1018200023F8242084F839002068C16821F400518D
:10183000C160204600F0D6FA2068016921F4904189
:1018400001612068416921F02A0141612068C16875
:1018500041F40051C160E563202084F8390084F828
:101860003A00002070BD000030B585B0002400941F
:101870000194029403940068184988422CD11848B6
:10188000816941F480418161816901F48041049161
:10189000816941F0040181618069124D00F004000A
:1018A00004904FF4007000900220019003200390F8
:1018B00069462846FFF7B8F92815CDE900046946BE
:1018C00028460294FFF7B0F9002211462520FFF7C1
:1018D00017FC2520FFF706FC05B030BD003801409D
:1018E0000010024000080140704700002DE9F84355
:1018F000044690F839001F4616460D4620284CD164
:10190000C5B1BEB194F83800012846D0012084F852
:1019100038004FF00008C4F83C80212084F83900DA
:10192000FFF788FAA6848146E684A068B0F5805F58
:1019300003D004E00120BDE8F883206928B12E46D9
:101940005FF0000584F838800EE00026FAE7802179
:10195000204600F0A3FAA0B9AEB116F8010B216839
:101960004860E08C401EE084E08C4B464FF0000263
:1019700000970028EBD14FF04001204600F08EFA8E
:1019800030B10320D7E735F8020BC0F30800E6E7D3
:10199000202084F839000020CDE70220CBE77047F3
:1019A000FEE710B5002001F019F801F041F8002021
:1019B00001F01CF8022000F0C9FF012001F00EF830
:1019C000022000F0C3FFBDE81040002001F006B87F
:1019D00010B504A000F09CFA01F018F8BDE8104022
:1019E00001F026B850423132202D205344410D0AD7
:1019F00050423133202D2053434C0D0A000000008B
:101A000010B5002000F0EAFF01F012F8012000F00C
:101A1000EDFF022000F09AFF012000F0DFFF02201E
:101A200000F094FFBDE81040002000F0D7BF70B573
:101A30000646002400F0EAFF0025002000F0CEFF5B
:101A4000022000F083FF012000F0C8FF6006040EB2
:101A500000F0D4FF08B1641CE4B2012000F076FF6E
:101A60006D1CEDB2082DE8D31EB1FFF79AFF20469A
:101A700070BDFFF7C5FFFAE770B50D46044600F0EC
:101A80003FF8204600F017F800F068F8284600F00C
:101A900012F800F063F800F033F8641CE0B200F0D4
:101AA0000AF800F05BF80020FFF7C1FF044600F0E1
:101AB0003EF8204670BD70B5044600F0B9FF002026
:101AC00000F08CFF0025200601D5012000E0002059
:101AD00000F08CFF6006040E022000F037FF0120AA
:101AE00000F07CFF022000F031FF002000F076FFC4
:101AF000022000F02BFF6D1CEDB2082DE3D370BD6A
:101B000010B500F095FF012000F070FF012000F0FB
:101B100065FF042000F01AFF002000F067FF04209A
:101B200000F014FFBDE81040002000F057BF10B5D2
:101B300000F07EFF002000F051FF002000F056FF73
:101B4000042000F003FF012000F048FF012000F016
:101B50004DFFBDE81040042000F0F8BE10B5002491
:101B600000F054FF012000F041FF012000F0EEFEE4
:101B7000012000F033FF012000F0E8FE07E0641CC4
:101B8000E4B2FA2C03D9FFF7D2FF012010BD00F018
:101B900035FF0028F3D100F021FF002010BD70B503
:101BA00015460E460446FFF7ABFF2046FFF783FFBE
:101BB000FFF7D4FF3046FFF77EFFFFF7CFFF284641
:101BC000FFF779FFFFF7CAFFFFF7B1FFBDE87040ED
:101BD0000A2000F0ADBE000070B586B000241848A1
:101BE0000094019402940394816941F02001816181
:101BF000816901F020010491816941F0080181614E
:101C0000816901F008010491816941F00401816159
:101C100080690C4E00F004004FF4405504900022FF
:101C200029463046FFF701F911200095CDE901045E
:101C30000220039069463046FEF7F6FF06B070BDFD
:101C400000100240000C01400D4810B50B49016026
:101C50000C49416000214FF480428160C0E90312C9
:101C600041618161C1610162FFF7EAF8002803D098
:101C7000BDE81040FEF73EBF10BD0000005400401C
:101C80001C000020A08601000C4810B50A49016024
:101C90004FF4E1314160002181600C22C160C0E954
:101CA00004128161C161FFF7ADFD002803D0BDE8DA
:101CB0001040FEF71FBF10BD00380140700000202B
:101CC000FEE7FEE770477047FFF7B4B930B58FB055
:101CD00028216846FEF761FA14210AA8FEF75DFA8A
:101CE00001210804CDE9001000240294022504918A
:101CF000CDE90750000109906846FFF723FB08B1C2
:101D000072B6FEE70F20CDE90A054FF48060CDE9F9
:101D10000C4002210AA80E94FFF724FA002801D0F3
:101D200072B6FEE70FB030BD704710B5406A0021B3
:101D3000C185C184FFF7B6FC10BD0168CA6822F4F2
:101D40009072CA6001684A6922F001024A6120214A
:101D500080F83A10704710B590F83A10222901D057
:101D6000022010BD82684FF480539A4201D101696C
:101D700021B1816A9A421BD04AB10AE00268816AA5
:101D80005268C2F308020A80816A891C08E002696D
:101D900072B10268526802F07F020A70816A491CBF
:101DA0008162C18D491E0904090CC18503D016E06A
:101DB00002685268F1E70168CA6822F02002CA602E
:101DC0000168CA6822F48072CA6001684A6922F018
:101DD00001024A61202180F83A10FFF785FD0020BA
:101DE00010BD000070B5044600680169E26821F486
:101DF0004051114301612169A068084361690843AA
:101E00002168CA6841F20C639A430243CA602068A1
:101E10004169A26921F44071114341611E49206862
:101E2000884202D1FFF744FA01E0FFF731FA00EBF4
:101E3000C00101EB0012606864218000B2FBF0F386
:101E4000B3FBF1F36FF018067343B2FBF0F5B2FB8E
:101E5000F0F605EB8305322303EB0515B5FBF1F531
:101E6000B6FBF1F605F0F00505EB0615B2FBF0F652
:101E7000B2FBF0F0B0FBF1F06FF01802504306EB4C
:101E8000800003EB0010B0FBF1F0216800F00F00C0
:101E90002844886070BD0000003801402DE9F04101
:101EA000984617460E460446069D1DE0681C1BD04A
:101EB0002DB1FEF7BFFFA0EB0800A84214D920689F
:101EC000C16821F4D071C1602068416921F001012D
:101ED0004161202084F8390084F83A00002084F819
:101EE00038000320BDE8F0812068006836EA000071
:101EF00004D00020B842D9D00020F3E70120F9E750
:101F00000148FFF7D1BB000070000020FEE7000091
:101F10000FB4054B10B503A9044A029800F07AF9F2
:101F200010BC5DF814FB000081290008140000209B
:101F3000490050EAC12018BF04204A0D18BF40F0E4
:101F4000010040F2FF72B2EB515F08BF40F00200A7
:101F5000012808BF052070470907090E002804DB87
:101F600000F1E02080F80014704700F00F0000F14D
:101F7000E02080F8141D70472DE9F0414F1E00EB62
:101F8000C7010446D1E9000115461E4637F0060296
:101F90000DD02A463346FEF7B2F97F1E04EBC70385
:101FA000D3E90023FEF704F937F00602F1D1022F3E
:101FB00025D0042F13D0062F18BFBDE8F0812A4684
:101FC0003346FEF79CF9D4E90A23FEF7F1F82A46D6
:101FD0003346FEF794F9D4E90823FEF7E9F82A46D8
:101FE0003346FEF78CF9D4E90623FEF7E1F82A46DA
:101FF0003346FEF784F9D4E90423FEF7D9F82A46DC
:102000003346FEF77CF9D4E90223FEF7D1F82A46DD
:102010003346FEF774F9D4E90023BDE8F041FEF73A
:10202000C7B800000022134610460149FEF7D9B98F
:102030000000F03FFEF7BCB80022134610461146E0
:10204000FEF7CFB940F2013200204FF0E041FEF739
:1020500037BA0000024A00201107FEF731BA00002B
:1020600001FDFFFF02E008C8121F08C1002AFAD1D3
:1020700070477047002001E001C1121F002AFBD108
:1020800070470000014908607047000018000020F8
:102090002DE9FF5F82B00021DDE90430020DDDF89B
:1020A00040B0034318D044F61050A2F2FF3242432E
:1020B0001514119801281FD0A5EB0B00401C5FEAF6
:1020C000000A4FF000064E4FDFF83891B0465046F8
:1020D00015D5CAF1000413E0119801244AA3012880
:1020E00001D16FEA0B010298119AC0E90031C0E9F1
:1020F000024206B0BDE8F09FCBF10000DFE70446E6
:102100000021404A491842EB0450CDE9001012E08A
:10211000E00707D032463B4640464946FEF7EFF817
:102120008046894632463B4610461946FEF7E7F898
:1021300006460F466410002CEAD1DDE90401DDE912
:102140000023BAF1000F06DAFEF7D9F842464B46F3
:10215000FEF7D5F805E0FEF744F942464B46FEF798
:1021600040F904460E460022284BFEF715FB03D823
:102170004FF0FF30014607E00022254B2046314654
:10218000FEF716F8FEF7EFFA102409E0002C0ADB40
:102190000A220023FEF701FA039B30321A55641E0F
:1021A00050EA0102F2D1641C039AC4F111031444F1
:1021B000119A012A03D0012208430DD10AE00843F5
:1021C00004D000204FF0110B119072E7A3EB0B0528
:1021D0006D1E0DE05B4504DD4FF0000205F10105C9
:1021E00004E003DA4FF00002A5F10105002AECD06B
:1021F00002981199C0E90231C0E9004579E7000071
:10220000000014400000F03F300000000000F043E8
:102210000000E03F2DE9FF4F95B09A4688460646FC
:102220000025EEE1252877D100242746F94A01212F
:10223000039400E0044316F8013F203B01FA03F049
:102240001042F7D130782A2811D06FF02F03307860
:10225000A0F13002092A16D8039A44F0020402EBD6
:10226000820203EB42021044761C0390EFE758F819
:10227000042B0392002A03DA504244F400540390E2
:1022800044F00204761C30782E2816D116F8010F7F
:1022900044F004042A280DD06FF02F023078A0F10A
:1022A0003003092B09D807EB870302EB4303C71858
:1022B000761CF3E758F8047B761C30786C280FD036
:1022C00006DC4C2817D068280DD06A2814D104E009
:1022D000742810D07A280FD10DE044F400140AE0DD
:1022E00044F4801401E044F440147278824202D134
:1022F00004F58014761C761C307866280BD013DC2D
:10230000582877D009DC002875D04528F6D0462813
:10231000F4D047281AD193E118E0632835D0642817
:1023200079D0652812D18BE1702873D008DC67283A
:10233000F1D069286FD06E280DD06F2806D1ACE09F
:1023400073282CD0752874D0782853D0524617990A
:1023500090476D1C54E1C4F30250022809D00328B1
:102360000DD0D8F8001004280DD00D6008F1040835
:1023700046E1D8F80010EA17C1E90052F6E7D8F8AC
:1023800000100D80F2E70D70F0E718F8041B8DF8CF
:10239000001000208DF80100EB46012003E058F802
:1023A00004BB4FF0FF3061074FF0000102D40DE095
:1023B00009F101018946B9420FDA8145F8DB1BF8C2
:1023C00009100029F4D108E009F101018946814290
:1023D000FADB1BF809100029F6D103985346A0EB4D
:1023E000090721463846179A00F080FA284400EB86
:1023F000090507E044E008E10DE01BF8010B524637
:1024000017999047B9F10109F7D25346214638464A
:10241000179AF2E039E00A21C4F302524FF0000BA0
:102420000091022A06D058F8040BC117032A09D0DC
:102430000AE023E008F1070020F00702F2E80201B9
:10244000904605E000B2C117042A01D140B2C1177D
:10245000002906DA0A460021404261EB02012D22E2
:1024600002E0220504D52B228DF80420012203E08E
:10247000E20701D02022F7E7914657E00A2100E069
:1024800010214FF0000B00910BE010214FF0000BDA
:1024900044F004040827009103E008204FF0000BEB
:1024A0000090C4F30252022A05D058F8040B002110
:1024B000032A08D008E008F1070020F00702F2E83C
:1024C0000201904603E080B2042A00D1C0B24FF06E
:1024D000000922072AD53278702A07D0DDF800C01B
:1024E0008CF0100C5CEA0B0C05D00EE040228DF84D
:1024F0000420012208E050EA010306D030238DF8C1
:1025000004308DF8052002229146009B83F00803D9
:1025100053EA0B030AD150EA010201D1620705D543
:1025200030228DF804204FF001097F1E3278582A9E
:1025300004D039A20C920CAA02920BE03BA2F9E75C
:102540005B46009AFEF729F80C9B9B5C029A521E90
:102550000292137050EA0102F2D1029804A9081AFB
:1025600000F1200B600702D524F4803400E001273D
:102570005F4502DDA7EB0B0000E0002000EB0B0144
:10258000009003984944401A0390E00306D4534650
:102590002146179A039800F0A9F90544002706E0A0
:1025A00001A85246C05D179990476D1C7F1C4F458E
:1025B000F6DBE0030CD553462146179A039800F04A
:1025C00095F9054404E030205246179990476D1C58
:1025D0000099481E00900029F5DC08E00298029955
:1025E00052460078491C0291179990476D1CBBF127
:1025F0000001ABF1010BF1DC5BE100F065F9054492
:10260000761C307800287FF40DAE19B02846BDE85E
:10261000F08F00000928010030313233343536376D
:10262000383961626364656600000000303132331E
:1026300034353637383941424344454600000000BE
:10264000600700D4062708F1070020F00700F0E833
:102650000223804603F0004C5FEA0C0001D097A0F3
:1026600009E0200501D596A005E0E00701D095A07E
:1026700001E0AFF24C001390307823F0004365285E
:102680000CD006DC452809D046281DD047287FD12C
:102690003BE0662818D067287AD136E00021112F58
:1026A00001DB112000E0781CCDE9000104A90CA891
:1026B000FFF7EEFCDDE90D010C9A4FF0000B07F17E
:1026C0000109109200914EE04FF000400097CDE9D3
:1026D000011004A90CA8FFF7DBFCDDE90D020C9B3F
:1026E0000F994FF0000B91461093009211B9791C8D
:1026F00000EB0109B7EB090003D4C0F1FF3B07F180
:102700000109A9EB0700019042E0012F00DA01273F
:102710000021112F01DD112000E03846CDE9000134
:1027200004A90CA8FFF7B4FCDDE90D010C9A009197
:102730004FF0000BB946109221070FD4009A4A457A
:1027400003DA914601E0A9F10109B9F1010F05DDB4
:10275000109AA9F10101515C3029F4D0B84202DA93
:1027600010F1040F03DA0121CDE9011010E0002877
:1027700003DC8344A9EB000102E0411C494500DD74
:102780008946A0EB0B00401C01904FF000400290E6
:10279000200705D40198484502DB4FF0FF30019037
:1027A00000208DF84B0002980DF14B07B0F1004F5F
:1027B00025D002200C902B200D90029800280CDAD6
:1027C000404202902D200D9007E00A210298FDF76B
:1027D000CEFE3031029007F8011D0C99481E0C9076
:1027E0000029F2DC02980028EFD1791E0D980870BC
:1027F000307800F0200040F0450007F8020D11A8E5
:10280000C01BC01D02901398007800B1012000EB9E
:102810000901019801EBE071029801440398401A04
:10282000401E0390E00306D453462146179A0398AE
:1028300000F05CF805441398007818B152461799D7
:1028400090476D1CE00323D553462146179A039801
:1028500000F04CF805441BE0BBF1000F07DB0098CB
:10286000584504DD1098179910F80B0001E01799EE
:1028700030205246904701980BF1010B401E05F1A4
:102880000105019004D12E205246179990476D1CE6
:10289000B9F10001A9F10109DEDC05E017F8010B2F
:1028A0005246179990476D1C0299481E02900029C4
:1028B000F4DC53462146179A03989EE62D0000004B
:1028C0002B000000200000002DE9F0410446002507
:1028D0001E461746880404D405E039462020B04738
:1028E0006D1C641EF9D52846BDE8F0812DE9F04144
:1028F000044600251E469046C80301D5302700E057
:102900002027880404D505E041463846B0476D1CB1
:10291000641EF9D52846BDE8F081000010B50446D4
:102920000420FEF79FFE0148046010BD0000002057
:1029300070B5054600244FF47A7603E0304600F087
:1029400005F8641CAC42F9D370BD000070B54FF0BF
:10295000E024002265690949A36909684843A1691F
:102960009942FCD002D2A3EB010302E0A5EB0106E1
:1029700033441A440B468242F1D370BD000000205C
:1029800013B54FF6FF73012269460248FEF7AEFF0A
:1029900000981CBD70000020FEF754FBFFF796F96D
:1029A000FFF71AF9FFF750F9FFF76EF94820FFF724
:1029B000B5FFFFF70DF805A0FFF7AAFA064C00BF18
:1029C000FDF766FF2046FFF7C1FFF9E75541525476
:1029D00020544553540D0A0020A1070002464FF42D
:1029E00000510148FEF721BA000C014002464FF4A5
:1029F00080510148FEF719BA000C01404FF4805194
:102A00000148FEF70DBA0000000C01401FB54FF45D
:102A1000805000900020019001200290032003903C
:102A200069460248FEF700F91FBD0000000C014096
:102A30001FB54FF4805000900120019000200290BB
:102A40000320039069460248FEF7EEF81FBD000020
:102A5000000C01402DE9F04D1D460C4698B017467C
:102A600021F0004123F00043002814BF4FF0010C77
:102A70004FF0000C0CEB440CFE4A0CEB02064FEA44
:102A8000620C66452BD33E0018BF012606EB4506B7
:102A90001644F94A964222D3F84A53EA070C02D068
:102AA000944205D148B918B000201146BDE8F08D18
:102AB000002808BF4FF0000C01D04FF0010C0CEBC8
:102AC000440212F5001F0AD8002F14BF4FF0010C6A
:102AD0004FF0000C0CEB450212F5001F07D918B09F
:102AE0003A462B462146BDE8F04DFFF7A3BA002237
:102AF000DFF88CA3002CB8BF534526DADFF884C377
:102B00006345A8BF022220DADFF870C39C451CDCB5
:102B1000DFF874C30CEB235CBCF1140F08DDCCF1BF
:102B2000340627FA06FC0CFA06F6BE420DD108E080
:102B30005FB9CCF1140623FA06FC0CFA06F69E42A5
:102B400003D10CF00102C2F1020251EA000C19D1CA
:102B5000002D17DA002C18BF022A01D0012A07D055
:102B60000220FFF78FFA18B0BDE8F04DFFF75ABA10
:102B70000220FFF787FAFFF755FA18B081F00041FD
:102B8000BDE8F08DB7F1000C6CD1534525D104F1AF
:102B9000804212F5801201BF00280020B74918B00A
:102BA00008BFBDE8F08DB548884207DC002DA1BF05
:102BB0006046294618B0BDE8F08D07E0281E05DA0A
:102BC00080F0004118B06046BDE8F08DAF4979440F
:102BD000D1E9000118B0BDE8F08DDFF8A0C263456F
:102BE00025D1002D1FDA19B1514512D1D8B909E00C
:102BF000002840F0EC82A24A214618B062F31E0180
:102C0000BDE8F08D0020214618B060F31E01BDE83C
:102C1000F08D08DA18B02346BDE8F04D02460020DA
:102C20006146FDF7DEBB18B02146BDE8F08D514589
:102C300018DAB5F1804F0DD0A5F1005CBCF1FF5C56
:102C400010D1B4F1000C0DDB18B06146BDE8F04DB9
:102C500000F0ECBB234618B00246BDE8F04D194623
:102C6000FDF74DBB060024F0004C3BD1D9B15145D6
:102C700033D1002C06DD002DA1BF0020514618B035
:102C8000BDE8F08D002C01DD002D1BDB002C13DADC
:102C9000002D11DB012A4FF0000014BF78497C4958
:102CA00018B0BDE8F08D022A18BF002C0AD0012A06
:102CB00008D1002C06DA0AE0002CB8BF002D11DA8A
:102CC000012A04D0002018B00146BDE8F08D18B0EC
:102CD00000204FF00041BDE8F08DA1F14050B0F16F
:102CE0007F601AD0012000EBE47050EA020421D08A
:102CF000624C521E4FF0000B104304BF4FF0000B0C
:102D0000644C654883427CDD644A654893421FDD1C
:102D1000884217DB002D25DB37E0002C00DA4AB1B2
:102D2000022A0CBF01204FF0FF3018B0BDE8F04D73
:102D3000FDF7DDBB0120FFF7A5F918B0BDE8F04DA8
:102D4000FFF77AB94D4A8A4202DC002D0ADC1CE00A
:102D5000814202DA002D18DA04E0484B994220DD66
:102D6000002D12DD0220FFF78DF9FFF76BF9054604
:102D70000E460022534658462146FDF7C0FA18B0C9
:102D800066F31E012846BDE8F08D0220FFF77AF9B0
:102D9000FFF760F90A46214618B062F31E01BDE84C
:102DA000F08D002230466146FDF7A3FA80460E46BC
:102DB0006FF00102FDF784FB4FF05532394BFDF700
:102DC0009BFA42463346FDF79AFA0022364BFDF74E
:102DD00093FA824642463346049110461946FDF75F
:102DE0008EFA5246049BFDF78AFA8A4600904FF00D
:102DF000C0422E4B40463146FDF781FA2C4A2B4B00
:102E000000E027E0CDE9060151460098FDF777FA8A
:102E100082460191274A284B40463146FDF76FFA1A
:102E20005246019BFDF765FA82460B460246059124
:102E3000DDE90601FDF7BCF9DDE906230026884639
:102E40003046FDF756FA5246059BFDF755FA024605
:102E500000F07EB90020B1F5801F07DA3522304638
:102E60006146FDF72DFB06466FF0340000EB215064
:102E700024E00000FFFF1F00FFFF0F000000F03FF5
:102E80000000F07F0000404301FCFFFF4609000006
:102E90000000F0FF0000F0BF0000E0410000F04340
:102EA000FFFFEF3F5555D53F0000E03F4715F73F87
:102EB000FE822B6544DF5DF80BAE543EA0F2FF307E
:102EC0000190C1F3130040F07F6141F04051029145
:102ED000FE498842D8BF002004DDFD498142C8BFB9
:102EE000012001DD0D9008E000200D900198401CAC
:102EF00001900298A0F5801002900299F54878445C
:102F00000B910D9900EBC100D0E900230F933046DF
:102F10000A920B99FDF7EDF9CDE90601DDE90A21E9
:102F200030460F9BFDF744F902460B460020EA4964
:102F3000FDF757FA059102460B460090DDE90601C0
:102F4000FDF7DDF91490E5488A464FF00008784413
:102F50000299006812904FF0005040EA61010D980C
:102F60000F9B01EB804000F5002109910A9A12980D
:102F7000FDF7BFF932460B9BFDF7BEF942465346BB
:102F8000FDF7BDF90646029140465146099B129A4B
:102F9000FDF7B5F9DDE90623FDF7AEF93246029BF0
:102FA000FDF7A7F9059B009AFDF7A9F90091149A7E
:102FB0000490534610461946FDF7A1F9064602460D
:102FC000C7480B46029106217844FEF7D5FFCDE9AC
:102FD0000510029B324610461946FDF790F9DDE9CF
:102FE0000532FDF78CF905910646534640461946D1
:102FF000149AFDF7DDF8009B049AFDF780F932463C
:10300000059BFDF7D5F8CDE905104246534610461D
:103010001946FDF774F90022B24B02910A90FDF7B0
:10302000C7F8DDE90532FDF7C3F80E464246AD4B61
:103030004046FDF75EF9029B0A9AFDF75AF9DDE971
:103040000532FDF759F9424602910A90334610467F
:103050005146FDF754F9CDE906015346149A0299F9
:103060000A98FDF74CF98A46029033464246009989
:103070000498FDF744F95346029AFDF799F8824601
:103080000B4602460591DDE90601FDF791F8DDE901
:103090000623002088460646FDF72BF95246059B7D
:1030A000FDF72AF9824609914FF060428E4B304677
:1030B0004146FDF724F9049006918C4A8A4B50460C
:1030C0000999FDF71CF982460291894A894B3046DD
:1030D0004146FDF714F95246029BFDF769F8864B0D
:1030E0007B440D9A03EBC203D3E90023FDF760F89C
:1030F0000E9007910198FDF7FAF90591DDE90613A5
:1031000082460E9A0498FDF753F87C4A7A440D9B48
:1031100002EBC303D3E9002300930292FDF748F8C2
:103120005246059BFDF744F8002688465246304635
:10313000059BFDF7DEF8009B029AFDF7DAF8069B87
:10314000049AFDF7D6F8079B0E9AFDF7D5F80246CC
:1031500000200B46029038462946FDF7D0F88246FB
:1031600001912B4638461946029AFDF7C2F83246BD
:103170004346FDF7C4F85246019BFDF719F8074690
:103180008A463246434629460298FDF7B8F8054676
:103190000E463A465346FDF70BF8594A8846914287
:1031A00021DBA8EB020353EA000210D12A46334682
:1031B000FDF79FF8CDE90401524A534B384651467A
:1031C000FCF7F6FFDDE90423FDF7E6FA21D2022041
:1031D000FEF758FFFEF736FF0A46214618B062F3A5
:1031E0001E01BDE8F08D494B28F000429A4210D3F1
:1031F000474A08EB020353EA00027FF4C6AD2A46B1
:103200003346FDF776F83A465346FDF7C5FA7FF6A2
:10321000BCAD0022019228F000403E493E4A01EB3D
:103220002051824223DA481C4FF4801121FA00F029
:1032300040443A4AC0F30A517A44394BA1F2FF3173
:10324000CB4020EA0303C0F3130040F48010C1F127
:103250001401C84012680190B8F1000FBCBF404291
:10326000019028463146FDF744F805460E462A46A9
:10327000334638465146FCF79BFF4FF00008424664
:10328000284B40460591FDF73AF8CDE90601264A5C
:10329000264B40460599FDF732F8009102902A46E8
:1032A000334640460599FDF724F83A465346FDF764
:1032B00023F81F4A1F4BFDF722F8009B029AFCF7E8
:1032C00077FF0746884602460B4635E08E98030096
:1032D0007AB60B008E0500000000F03FC605000026
:1032E000F40400000000084009C7EE3FFD033ADC8B
:1032F000F5015B14E02F3EBECC03000090030000FC
:1033000000009040FE822B654715973C00CC904012
:1033100000346F3F01FCFFFF0000E03FDC020000D3
:10332000FFFF0F00432EE63F396CA80C615C20BE06
:10333000EF39FAFE422EE63FDDE90601FCF738FFE1
:10334000DDE9062305460E46FCF7D3FF3A46434621
:10335000FCF7D2FF0F462A46334600901046194626
:10336000FCF7CDFF824602462E4888460B460521D3
:103370007844FEF701FE52464346FCF7C0FF2A465A
:103380003346FCF7B9FF80468A463B46284631461D
:10339000009AFCF7B4FF3B46009AFCF709FF069140
:1033A000009000224FF0804340465146FCF7A1FFB9
:1033B0000F460C904246534628463146FCF79FFF85
:1033C0003B460C9AFDF70DF8069B009AFCF791FF1F
:1033D0002A463346FCF78DFF0022134BFCF78CFF87
:1033E000054601980E4601EB00510815002810DC37
:1033F00028463146019AFDF763F8FEF799FD042847
:1034000008BFFEF727FE28463146019AFDF758F817
:1034100005460B4618B02A4658462146BDE8F04DF1
:10342000FCF76DBF7C0100000000F03F2DE9F0418A
:1034300006460F46FDF7DAF9041E0D4618BF0120B7
:10344000284320F00040C0F17F6000F1E040C00F51
:103450000ED0301C18BF0120384320F00040C0F1CE
:103460007F6000F1E040C00F04BF0120FEF70AFEBC
:1034700020462946BDE8F081000000000000000061
:10348000010203040607080900000000010203040A
:10349000000000000000F03F000000000000F83FC6
:1034A00000000000000000000000004003B8E23F00
:1034B000000000000000000006D0CF43EBFD4C3EB2
:1034C000033333333333E33FFFAB6FDBB66DDB3FA7
:1034D0004D268F515555D53F01411DA96074D13FEF
:1034E00065DBC9934A86CD3FEF4E454A287ECA3FE9
:1034F0003E5555555555C53F93BDBE166CC166BF6B
:103500002CDE25AF6A56113FF16BD2C541BDBBBE63
:10351000D0A4BE726937663E0000000000000000C3
:10352000424D503138305F4944203D2030582558B5
:10353000092020424D503138305F74656D70203D58
:103540002025642E25644309202020424D50313827
:10355000305F5072657373757265203D20256C6411
:10356000506109202020424D503138305F416C7449
:103570006974756465203D20252E35666D0D0A0041
:10358000A0350008000000201C0000006420000896
:10359000BC3500081C000020E40400007420000872
:1035A000000000000100000010000000000000000A
:0C35B0000024F4000000000000000000F7
:0400000508000131BD
:00000001FF
